{"abi":[{"type":"constructor","inputs":[],"stateMutability":"nonpayable"},{"type":"function","name":"authorizeIssuer","inputs":[{"name":"issuer","type":"address","internalType":"address"}],"outputs":[],"stateMutability":"nonpayable"},{"type":"function","name":"authorizedIssuers","inputs":[{"name":"","type":"address","internalType":"address"}],"outputs":[{"name":"","type":"bool","internalType":"bool"}],"stateMutability":"view"},{"type":"function","name":"owner","inputs":[],"outputs":[{"name":"","type":"address","internalType":"address"}],"stateMutability":"view"},{"type":"function","name":"registerCertificate","inputs":[{"name":"certHash","type":"bytes32","internalType":"bytes32"}],"outputs":[],"stateMutability":"nonpayable"},{"type":"function","name":"revokeIssuer","inputs":[{"name":"issuer","type":"address","internalType":"address"}],"outputs":[],"stateMutability":"nonpayable"},{"type":"function","name":"verifyCertificate","inputs":[{"name":"certHash","type":"bytes32","internalType":"bytes32"}],"outputs":[{"name":"","type":"bool","internalType":"bool"}],"stateMutability":"view"},{"type":"event","name":"CertificateRegistered","inputs":[{"name":"certHash","type":"bytes32","indexed":true,"internalType":"bytes32"},{"name":"issuedBy","type":"address","indexed":true,"internalType":"address"},{"name":"timestamp","type":"uint256","indexed":false,"internalType":"uint256"}],"anonymous":false},{"type":"event","name":"IssuerAuthorized","inputs":[{"name":"issuer","type":"address","indexed":true,"internalType":"address"}],"anonymous":false},{"type":"event","name":"IssuerRevoked","inputs":[{"name":"issuer","type":"address","indexed":true,"internalType":"address"}],"anonymous":false},{"type":"error","name":"AlreadyRegistered","inputs":[]},{"type":"error","name":"NotAuthorized","inputs":[]},{"type":"error","name":"NotOwner","inputs":[]}],"bytecode":{"object":"0x6080604052348015600e575f5ffd5b503360025f6101000a81548173ffffffffffffffffffffffffffffffffffffffff021916908373ffffffffffffffffffffffffffffffffffffffff1602179055506001805f3373ffffffffffffffffffffffffffffffffffffffff1673ffffffffffffffffffffffffffffffffffffffff1681526020019081526020015f205f6101000a81548160ff0219169083151502179055506106d3806100b05f395ff3fe608060405234801561000f575f5ffd5b506004361061005f575f3560e01c806262967914610063578063436693d51461007f578063850c17681461009b5780638da5cb5b146100cb578063f101dce8146100e9578063f731fa0f14610105575b5f5ffd5b61007d60048036038101906100789190610588565b610135565b005b61009960048036038101906100949190610588565b610255565b005b6100b560048036038101906100b091906105e6565b610375565b6040516100c2919061062b565b60405180910390f35b6100d361039a565b6040516100e09190610653565b60405180910390f35b61010360048036038101906100fe91906105e6565b6103bf565b005b61011f600480360381019061011a9190610588565b61050d565b60405161012c919061062b565b60405180910390f35b60025f9054906101000a900473ffffffffffffffffffffffffffffffffffffffff1673ffffffffffffffffffffffffffffffffffffffff163373ffffffffffffffffffffffffffffffffffffffff16146101bb576040517f30cd747100000000000000000000000000000000000000000000000000000000815260040160405180910390fd5b5f60015f8373ffffffffffffffffffffffffffffffffffffffff1673ffffffffffffffffffffffffffffffffffffffff1681526020019081526020015f205f6101000a81548160ff0219169083151502179055508073ffffffffffffffffffffffffffffffffffffffff167f95a4c2ae425bb769549aa1a911911ff57c17ae811ae8c8962d0b9746fcb1539760405160405180910390a250565b60025f9054906101000a900473ffffffffffffffffffffffffffffffffffffffff1673ffffffffffffffffffffffffffffffffffffffff163373ffffffffffffffffffffffffffffffffffffffff16146102db576040517f30cd747100000000000000000000000000000000000000000000000000000000815260040160405180910390fd5b6001805f8373ffffffffffffffffffffffffffffffffffffffff1673ffffffffffffffffffffffffffffffffffffffff1681526020019081526020015f205f6101000a81548160ff0219169083151502179055508073ffffffffffffffffffffffffffffffffffffffff167f8b4006ca14f23d4e7aa8d120d1ab7c3761d650eefac1a5d6732dbea94b54ea2460405160405180910390a250565b5f5f5f8381526020019081526020015f205f9054906101000a900460ff169050919050565b60025f9054906101000a900473ffffffffffffffffffffffffffffffffffffffff1681565b60015f3373ffffffffffffffffffffffffffffffffffffffff1673ffffffffffffffffffffffffffffffffffffffff1681526020019081526020015f205f9054906101000a900460ff1661043f576040517fea8e4eb500000000000000000000000000000000000000000000000000000000815260040160405180910390fd5b5f5f8281526020019081526020015f205f9054906101000a900460ff1615610493576040517f3a81d6fc00000000000000000000000000000000000000000000000000000000815260040160405180910390fd5b60015f5f8381526020019081526020015f205f6101000a81548160ff0219169083151502179055503373ffffffffffffffffffffffffffffffffffffffff16817f0b72fa3233ea9d06bb49c49a07500379ad7cc42858fb6bd48d31dc5cf3f8487e426040516105029190610684565b60405180910390a350565b6001602052805f5260405f205f915054906101000a900460ff1681565b5f5ffd5b5f73ffffffffffffffffffffffffffffffffffffffff82169050919050565b5f6105578261052e565b9050919050565b6105678161054d565b8114610571575f5ffd5b50565b5f813590506105828161055e565b92915050565b5f6020828403121561059d5761059c61052a565b5b5f6105aa84828501610574565b91505092915050565b5f819050919050565b6105c5816105b3565b81146105cf575f5ffd5b50565b5f813590506105e0816105bc565b92915050565b5f602082840312156105fb576105fa61052a565b5b5f610608848285016105d2565b91505092915050565b5f8115159050919050565b61062581610611565b82525050565b5f60208201905061063e5f83018461061c565b92915050565b61064d8161054d565b82525050565b5f6020820190506106665f830184610644565b92915050565b5f819050919050565b61067e8161066c565b82525050565b5f6020820190506106975f830184610675565b9291505056fea2646970667358221220bfe4b9cf71c32730b73fe75ecbd8904e1083ec0c73208a0b62b821379451ad2064736f6c63430008220033","linkReferences":{}},"methodIdentifiers":{"authorizeIssuer(address)":"436693d5","authorizedIssuers(address)":"f731fa0f","owner()":"8da5cb5b","registerCertificate(bytes32)":"f101dce8","revokeIssuer(address)":"00629679","verifyCertificate(bytes32)":"850c1768"},"id":50}